:020000040800F2
:1000000000200020D50F0008DD0D0008E30D0008DA
:1000100000000000000000000000000000000000E0
:10002000000000000000000000000000E90D0008D2
:100030000000000000000000F30D0008FD0D0008A6
:1000400025100008000000002510000825100008F9
:10005000251000082510000825100008310E0008A2
:1000600000000000251000082510000825100008D9
:1000700025100008510E0008690E0008000000005D
:10008000810E00082510000800000000251000085F
:10009000251000082510000825100008251000086C
:1000A0002510000825100008990E0008B10E000860
:1000B0002510000800000000000000000000000003
:1000C00010B5064C2378002B07D1054B002B02D02E
:1000D000044800E000BF0123237010BDB8000020D9
:1000E00000000000748C0008044B10B5002B03D0F6
:1000F0000349044800E000BF10BDC04600000000F6
:10010000BC000020748C000803B47146490840000C
:100110004900095E49008E4403BC70470022430831
:100120008B4274D303098B425FD3030A8B4244D3BF
:10013000030B8B4228D3030C8B420DD3FF22090201
:1001400012BA030C8B4202D31212090265D0030BC0
:100150008B4219D300E0090AC30B8B4201D3CB03B6
:10016000C01A5241830B8B4201D38B03C01A5241F8
:10017000430B8B4201D34B03C01A5241030B8B42FA
:1001800001D30B03C01A5241C30A8B4201D3CB02E5
:10019000C01A5241830A8B4201D38B02C01A5241CA
:1001A000430A8B4201D34B02C01A5241030A8B42CD
:1001B00001D30B02C01A5241CDD2C3098B4201D3E5
:1001C000CB01C01A524183098B4201D38B01C01A63
:1001D000524143098B4201D34B01C01A52410309DA
:1001E0008B4201D30B01C01A5241C3088B4201D389
:1001F000CB00C01A524183088B4201D38B00C01A36
:10020000524143088B4201D34B00C01A5241411A5C
:1002100000D20146524110467047FFE701B5002069
:1002200000F006F802BDC0460029F7D076E7704717
:100230007047C04680B584B000AFF860B9607A609E
:100240007B689AB201235B42B968044803F03AFC28
:100250007B681800BD4604B080BDC046C8010020C0
:1002600080B500AF044B00220221180001F00CFA07
:10027000C046BD4680BDC0460004004880B500AF02
:10028000044B01220221180001F0FEF9C046BD46D0
:1002900080BDC0460004004890B583B000AF7860D0
:1002A0000A00BB1C1A8001235C42BB1C1A887968B7
:1002B0000348230002F086F9C046BD4603B090BD56
:1002C000D400002090B583B000AF78600A00BB1C5A
:1002D0001A8001235C42BB1C1A88796803482300FA
:1002E00002F018F8C046BD4603B090BDD40000200F
:1002F00080B582B000AFFB1D01211800FFF7CCFFD5
:10030000FB1D1B781800BD4602B080BD80B582B0D1
:1003100000AF0200FB1D1A70FB1D01211800FFF742
:10032000D1FFC046BD4602B080BD000080B500AF21
:1003300007F0F2FB0200054B1100180007F046FC25
:10034000034B01221A70C046BD4680BD8C8C00084C
:100350004C06002080B500AF034B180007F0C2FC2C
:10036000C046BD4680BDC046BC8C0008F0B5DE4628
:1003700057464E464546E0B59FB00EAF00F054FEDE
:1003800000F044F900F0C4FA00F0E0F900F090FA4F
:1003900000F09EF900F034FA834B180007F0A2FC3D
:1003A000824A834B1100180005F082FC814A824B7F
:1003B0001100180005F0A0FC804A814B11001800C4
:1003C00005F0C6FC7F4B180007F08CFC1C2118259B
:1003D0004B19DB197C4A11CA11C34B19DA194B1995
:1003E000DB191100180005F028FD784B180007F004
:1003F00079FC1C243B19180017231A00002107F070
:10040000DDFB20003B18724A1168196092889A80BF
:100410003B1802229A756F4B180007F063FC6E4A76
:100420006E496E4B180005F05BFE6D4B180007F02F
:1004300059FC6C4BFB630CE06B4B180007F052FC53
:1004400007F06EF8FB6B013BFB63684B180007F08D
:1004500049FC674B1B78DBB201225340DBB2002B17
:1004600002D0FB6B002BE7D1614B1B78DBB2012282
:100470005340DBB2002B05D05E4B180007F032FC76
:10048000012387E01C243B190633180007F0CCFA3F
:100490003B190E33180007F0E5FA3B190A33180030
:1004A00007F0FEFA18203B18180007F017FB22008F
:1004B000BB189B797B61BB18DB793B61BB181B7A4E
:1004C000FB60BB185B7A1D00BB189B7B1E00BB1832
:1004D000DB7B9C46BB181B7C9846BB185B7C994613
:1004E000BB189B7A9A46BB18DB7A9B46BB181B7BD2
:1004F000BB60BB185B7B7B6018203B181B781C0023
:100500003B185B7819003B189B781A003B18DB7886
:1005100039480C930B920A9109947C680894BC6842
:1005200007945C460694544605944C46049444460D
:1005300003946446029401960095FB683A697969D0
:1005400007F044FB2D4B180007F0CCFB1C243B1993
:10055000180005F035FD391990231B0106221800FB
:1005600004F0F0FA264B1900002007F0A3F9254B00
:100570001B68022252421A61224B180002F080FED0
:10058000214B1B68022252421A611F4B180002F0D5
:1005900077FEFEE71800BD4611B0F0BCBB46B24680
:1005A000A946A046F0BDC046D48C00087D020008D4
:1005B000610200080D030008F1020008C5020008EE
:1005C00099020008F48C00080C8E0008108D0008B9
:1005D000148E0008288D0008550300082D0300081C
:1005E000488D000810270000608D0008708D0008FD
:1005F0004C060020808D00089C8D0008E88D0008C6
:100600004C020020380100208001002090B595B0F8
:1006100000AF20243B19180030231A00002107F0F6
:10062000CDFA1023FB18180010231A00002107F040
:10063000C5FA3B00180010231A00002107F0BEFA8B
:1006400021007B1802221A607B180122DA607B18D5
:1006500010221A617B1802221A627B1800225A6249
:100660007B18A02292039A627B180022DA627B1820
:10067000180001F05DF8031E01D000F08DFA102182
:100680007B1807221A607B1802225A607B1800220E
:100690009A607B180022DA607B180121180001F0B3
:1006A00061FB031E01D000F077FA3B0001221A60C3
:1006B0003B0000229A603B00180001F0A5FC031EDD
:1006C00001D000F069FAC046BD4615B090BD0000EB
:1006D00080B500AF1B4B1C4A1A601A4B8222520095
:1006E0005A60184B00229A60164BC0229200DA60C2
:1006F000144B00221A61134B00225A61114B8022C5
:1007000092009A610F4B0822DA610E4B00221A62A6
:100710000C4B00225A620B4B00229A62094B0722B3
:10072000DA62084B00221A63064B08225A63054B13
:10073000180001F037FD031E01D000F02DFAC0466D
:10074000BD4680BDD40000200038004080B586B092
:1007500000AF0823FB18180010231A00002107F02F
:100760002DFA3B00180008231A00002107F026FA92
:100770001F4B204A1A601E4B1F4A5A601C4B002216
:100780009A601B4B1D4ADA60194B00221A61184B04
:1007900000225A61164B00229A61154B180002F094
:1007A0001FFD031E01D000F0F7F908217B188022FD
:1007B00052011A607A180E4B1100180002F0C2FEA6
:1007C000031E01D000F0E8F93B0000221A603B0054
:1007D00000225A603A00064B1100180003F0B6F8E8
:1007E000031E01D000F0D8F9C046BD4606B080BD5A
:1007F00038010020002C01407FBB0000E70300000F
:1008000080B586B000AF0823FB18180010231A002B
:10081000002107F0D3F93B00180008231A0000213B
:1008200007F0CCF91E4B1F4A1A601D4B1E4A5A6036
:100830001B4B00229A601A4B1C4ADA60184B0022AC
:100840001A61174B00229A61154B180002F0C8FC80
:10085000031E01D000F0A0F908217B18802252016C
:100860001A607A180E4B1100180002F06BFE031E7E
:1008700001D000F091F93B0000221A603B000022F9
:100880005A603A00064B1100180003F05FF8031E8F
:1008900001D000F081F9C046BD4606B080BDC0461B
:1008A00080010020000400407FBB0000E70300003F
:1008B00080B500AF144B154A1A60134BE122520267
:1008C0005A60114B00229A600F4B0022DA600E4BE7
:1008D00000221A610C4B0C225A610B4B00229A61C8
:1008E000094B0022DA61084B00221A62064B0022F3
:1008F0005A62054B180003F091F8031E01D000F076
:100900004BF9C046BD4680BDC801002000380140FB
:1009100090B58BB000AF14243B19180014231A00B3
:10092000002107F04BF95D4B5A695C4B80210903AC
:100930000A435A61594B5A6980231B0313403B6198
:100940003B69564B5A69554B8021C9030A435A618A
:10095000524B5A698023DB031340FB60FB684F4B0B
:100960005A694E4B802189020A435A614B4B5A699E
:1009700080239B021340BB60BB68484B5A69474BBE
:100980008021C9020A435A61444B5A698023DB0221
:1009900013407B607B68812359019023DB05002293
:1009A000180000F071FE3E4B00220221180000F0FA
:1009B0006BFE80239B003B480022190000F064FE80
:1009C0003B19802292011A603B19842292035A60DB
:1009D0003B1900229A603B19324A1900100000F0BE
:1009E000E3FC21003B19812252011A600C003B19E3
:1009F00001225A603B1900229A603B190022DA60FA
:100A00003A199023DB051100180000F0CDFC3B19CA
:100A100002221A603B1901225A603B1900229A6097
:100A20003B190022DA603B191D4A1900100000F042
:100A3000BBFC21007B18802292001A600C003B193D
:100A400001225A603B1900229A603B190022DA60A9
:100A50003B19144A1900100000F0A6FC21007B1875
:100A6000802212011A607B18882252035A607B1878
:100A700000229A607A189023DB051100180000F01C
:100A800093FC00220021072000F0DEFB072000F08D
:100A9000F0FBC046BD460BB090BDC0460010024002
:100AA000000400480008004880B582B000AF020092
:100AB000BB1D1A80BB1D1A88104B1100180007F0CF
:100AC00085F8BB1D1A8880239B019A4207D1802399
:100AD0009B000B4A1900100000F0F3FD09E0BB1D5C
:100AE0001A8880231B019A4203D1064B180007F095
:100AF0006DF8C046BD4602B080BDC0461C8E0008E1
:100B0000000800482C8E0008B0B582B000AF7860B5
:100B10007B681B681B4A934228D11B4B1B685A1CDD
:100B2000194B1A60184B1B68E12211011800FFF7DE
:100B3000F5FA03001C00144B1B683C211800FFF75A
:100B4000EDFA03001D00104B1B683C211800FFF755
:100B50006BFB0B000D482A00210007F037F89023AB
:100B6000DB052021180000F0ACFD06E07B681B6867
:100B7000074A934201D1074B1B78C046BD4602B0DD
:100B8000B0BDC046002C014050060020488E000831
:100B9000000400404C06002080B500AF72B6C0468D
:100BA000FEE7000080B582B000AF0F4B9A690E4B94
:100BB00001210A439A610C4B9B69012213407B601F
:100BC0007B68094BDA69084B802149050A43DA61E1
:100BD000054BDA6980235B0513403B603B68C046E8
:100BE000BD4602B080BDC0460010024090B58BB03B
:100BF00000AF786014243B19180014231A00002158
:100C000006F0DCFF7B681B68204A93423AD1204BF8
:100C1000DA691F4B8021C9010A43DA611C4BDA698A
:100C20008023DB0113403B613B69194B5A69184B28
:100C30008021C9020A435A61154B5A698023DB029D
:100C40001340FB60FB683B19E02212021A6021008E
:100C50007B1802225A607B1800229A607B180322BC
:100C6000DA607B1800221A617B180A4A190010000A
:100C700000F09AFB002200211A2000F0E5FA1A2069
:100C800000F0F7FAC046BD460BB090BD00380040FA
:100C9000001002400004004880B584B000AF7860C6
:100CA0007B681B681F4A93421ED11F4B9A691E4BDB
:100CB000802109010A439A611B4B9A6980231B0119
:100CC0001340FB60FB68002200210D2000F0BCFAFD
:100CD0000D2000F0CEFA002200210E2000F0B4FA20
:100CE0000E2000F0C6FA18E07B681B680F4A93429A
:100CF00013D10D4BDA690C4B02210A43DA610A4B1E
:100D0000DB6902221340BB60BB6800220021102077
:100D100000F09AFA102000F0ACFAC046BD4604B0CC
:100D200080BDC046002C014000100240000400407D
:100D300090B58BB000AF786014243B1918001423D1
:100D40001A00002106F03AFF7B681B68214A934293
:100D50003BD1214B9A69204B8021C9010A439A61FA
:100D60001D4B9A698023DB0113403B613B691A4BA1
:100D70005A69194B802189020A435A61164B5A69F4
:100D800080239B021340FB60FB683B19C022D2000A
:100D90001A6021007B1802225A607B1800229A6098
:100DA0007B180322DA607B1801221A617A189023DB
:100DB000DB051100180000F0F7FA002200211B20CB
:100DC00000F042FA1B2000F054FAC046BD460BB0BA
:100DD00090BDC046003801400010024080B500AF11
:100DE000FEE780B500AFFEE780B500AFC046BD4668
:100DF00080BD80B500AFC046BD4680BD80B500AFA8
:100E00000A4B1B8801339AB2084B1A80074B1A8889
:100E1000FA239B009A4204D106F0FAFD034B00220C
:100E20001A8000F049F9C046BD4680BD5406002036
:100E300080B500AF80231B01180000F05DFC80230B
:100E40009B01180000F058FCC046BD4680BD000064
:100E500080B500AF034B180002F05EFAC046BD46F5
:100E600080BDC0463801002080B500AF034B18009C
:100E700002F052FAC046BD4680BDC046380100208F
:100E800080B500AF034B180002F046FAC046BD46DD
:100E900080BDC0468001002080B500AF034B180024
:100EA00001F0AEFEC046BD4680BDC046D400002065
:100EB00080B500AF034B180002F0AEFEC046BD4641
:100EC00080BDC046C801002080B586B000AFF86084
:100ED000B9607A6000237B610AE000E000BF010096
:100EE000BB685A1CBA60CAB21A707B6901337B6155
:100EF0007A697B689A42F0DB7B681800BD4606B0D1
:100F000080BD80B582B000AF786001235B421800DD
:100F1000BD4602B080BD80B582B000AF7860396058
:100F20003B68802292015A6000231800BD4602B03F
:100F300080BD80B582B000AF786001231800BD4647
:100F400002B080BD80B584B000AFF860B9607A604F
:100F500000231800BD4604B080BD000080B586B0F7
:100F600000AF7860144A154BD31A7B617B693B61F3
:100F7000134B1B68002B02D1114B124A1A60104B05
:100F80001A687B68D3183A699A4207D206F0ECFDDA
:100F900003000C221A6001235B4209E0084B1B6826
:100FA000FB60074B1A687B68D218054B1A60FB6818
:100FB0001800BD4606B080BD0020002000040000DF
:100FC00058060020C806002080B500AFC046BD46C8
:100FD00080BD00000D4885460D480E490E4A00238D
:100FE00002E0D458C4500433C4188C42F9D30B4ADD
:100FF0000B4C002301E013600432A242FBD3FFF745
:10100000E3FF06F0B7FDFFF7B1F9FEE7002000208F
:1010100000000020B800002038900008B800002030
:10102000C8060020FEE7000080B500AF074B1A6835
:10103000064B10210A431A60032000F009F8FFF75D
:10104000B1FD00231800BD4680BDC046002002400F
:1010500090B583B000AF7860144B1C68144B1B78BC
:101060001900FA239800FFF759F80300190020002F
:10107000FFF754F80300180000F00BF9031E01D02D
:1010800001230FE07B68032B0BD8796801235B42B7
:101090000022180000F0D8F8064B7A681A60002386
:1010A00000E001231800BD4603B090BD0000002001
:1010B000080000200400002080B500AF054B1B781D
:1010C0001A00054B1B68D218034B1A60C046BD4678
:1010D00080BDC046080000205C06002080B500AF3F
:1010E000024B1B681800BD4680BDC0465C06002050
:1010F00080B582B000AF0200FB1D1A70FB1D1B788B
:101100007F2B09D8FB1D1B781A001F231A40044BA4
:10111000012191400A001A60C046BD4602B080BD60
:1011200000E100E090B583B000AF02003960FB1D24
:101130001A70FB1D1B787F2B28D82F4AFB1D1B78AC
:101140005BB29B08C0339B009B58FA1D12781100BC
:1011500003220A40D200FF2191400A00D2431A40E4
:1011600011003B689B01FF221A40FB1D1B781800F1
:1011700003230340DB009A401F48FB1D1B785BB232
:101180009B080A43C0339B001A5031E01B4AFB1DE9
:101190001B7819000F230B40083B9B0806339B006C
:1011A000D31804331B68FA1D1278110003220A4079
:1011B000D200FF2191400A00D2431A4011003B683F
:1011C0009B01FF221A40FB1D1B78180003230340DC
:1011D000DB009A400948FB1D1B781C000F232340AD
:1011E000083B9B080A4306339B00C31804331A606C
:1011F000C046BD4603B090BD00E100E000ED00E058
:1012000080B582B000AF78607B685A1E80235B0493
:101210009A4201D3012310E00A4B7A68013A5A60DE
:1012200001235B4203211800FFF77CFF054B0022DE
:101230009A60044B07221A6000231800BD4602B0D2
:1012400080BDC04610E000E080B584B000AFB9605A
:101250007A600F217B18021C1A70BA687B181B7801
:101260005BB211001800FFF75DFFC046BD4604B039
:1012700080BD80B582B000AF0200FB1D1A70FB1D5F
:101280001B785BB21800FFF733FFC046BD4602B0C3
:1012900080BD80B582B000AF78607B681800FFF732
:1012A000AFFF03001800BD4602B080BD80B582B01C
:1012B00000AF78607B6821229B5CDBB2022B08D0F8
:1012C0007B6804229A637B682022002199540123C1
:1012D00020E07B681B681A687B681B680E218A43C4
:1012E0001A607B681B681A687B681B6801218A4347
:1012F0001A607B681A6C7B68DB6B012191400A00E5
:101300005A607B682122012199547B6820220021A8
:10131000995400231800BD4602B080BD80B584B04A
:1013200000AF78600F217B1800221A707B682122A1
:101330009B5CDBB2022B06D07B6804229A637B188D
:1013400001221A7028E07B681B681A687B681B689A
:101350000E218A431A607B681B681A687B681B68C9
:1013600001218A431A607B681A6C7B68DB6B012160
:1013700091400A005A607B682122012199547B68C0
:101380002022002199547B685B6B002B04D07B6882
:101390005B6B7A68100098470F23FB181B781800C6
:1013A000BD4604B080BD000080B586B000AF786057
:1013B000396000237B614FE13B681B6801217A693A
:1013C00091400A001340FB60FB68002B00D140E114
:1013D0003B685B6803221340012B05D03B685B68C8
:1013E00003221340022B30D17B689B683B617B69F1
:1013F0005B0003229A401300DA433B6913403B61D0
:101400003B68DA687B695B009A4013003A691343D2
:101410003B617B683A699A607B685B683B6101224B
:101420007B699A401300DA433B6913403B613B6898
:101430005B681B0901221A407B699A4013003A69D4
:1014400013433B617B683A695A603B685B680322DF
:101450001340032B17D07B68DB683B617B695B0023
:1014600003229A401300DA433B6913403B613B6817
:101470009A687B695B009A4013003A6913433B61A9
:101480007B683A69DA603B685B6803221340022B91
:1014900023D17B69DA087B6808329200D3583B611C
:1014A0007B69072213409B000F229A401300DA4306
:1014B0003B6913403B613B681A697B6907210B401C
:1014C0009B009A4013003A6913433B617B69DA0839
:1014D0007B68083292003969D1507B681B683B6198
:1014E0007B695B0003229A401300DA433B69134097
:1014F0003B613B685B6803221A407B695B009A4052
:1015000013003A6913433B617B683A691A603B6890
:101510005A68C0239B02134000D19AE0544B9A6949
:10152000534B01210A439A61514B9B69012213409D
:10153000BB60BB684F4A7B699B0802339B009B588A
:101540003B617B69032213409B000F229A401300EA
:10155000DA433B6913403B617A689023DB059A428A
:1015600013D07B68444A93420DD07B68434A934230
:1015700007D07B68424A934201D1032306E005234A
:1015800004E0022302E0012300E000237A69032142
:101590000A40920093403A6913433B6135497B69A5
:1015A0009B0802339B003A695A50364B1B683B61DB
:1015B000FB68DA433B6913403B613B685A68802310
:1015C0005B02134003D03A69FB6813433B612D4B28
:1015D0003A691A602B4B5B683B61FB68DA433B69F5
:1015E00013403B613B685A6880239B02134003D041
:1015F0003A69FB6813433B61224B3A695A60214BBD
:101600009B683B61FB68DA433B6913403B613B6885
:101610005A6880235B03134003D03A69FB68134385
:101620003B61184B3A699A60164BDB683B61FB687B
:10163000DA433B6913403B613B685A6880239B0354
:10164000134003D03A69FB6813433B610D4B3A6981
:10165000DA607B6901337B613B681A687B69DA4039
:10166000131E00D0A8E6C046C046BD4606B080BDE9
:10167000001002400000014000040048000800483B
:10168000000C00480004014080B582B000AF7860D3
:1016900008001100BB1C021C1A807B1C0A1C1A705B
:1016A0007B1C1B78002B04D0BB1C1A887B689A61BA
:1016B00003E0BB1C1A887B689A62C046BD4602B034
:1016C00080BD80B584B000AF78600A00BB1C1A8072
:1016D0007B685B69FB60BB1C1B88FA6813401A04BB
:1016E000FB68DB43B91C09880B401A437B689A618D
:1016F000C046BD4604B080BD80B582B000AF0200D8
:10170000BB1D1A80094B5B69BA1D1288134008D0B3
:10171000064BBA1D12885A61BB1D1B881800FFF7C3
:10172000C3F9C046BD4602B080BDC04600040140BA
:1017300080B588B000AF78607B68002B01D10123B1
:1017400001E37B681B680122134000D18DE0C34B8D
:101750005B680C221340042B0ED0C04B5B680C223C
:101760001340082B16D1BD4B5A6880235B021A40E8
:1017700080235B029A420DD1B84B1A6880239B02EA
:10178000134000D170E07B685B68002B00D06BE0F9
:101790000123D8E27B685B68012B07D1AF4B1A6845
:1017A000AE4B802149020A431A602FE07B685B68D8
:1017B000002B0CD1A94B1A68A84BA9490A401A6002
:1017C000A64B1A68A54BA7490A401A601EE07B6821
:1017D0005B68052B0ED1A14B1A68A04B8021C90272
:1017E0000A431A609D4B1A689C4B802149020A43A8
:1017F0001A600BE0994B1A68984B99490A401A6095
:10180000964B1A68954B97490A401A607B685B684B
:10181000002B14D0FFF762FC0300BB6108E0FFF768
:101820005DFC0200BB69D31A642B01D903238AE251
:101830008A4B1A6880239B021340F0D015E0FFF713
:101840004DFC0300BB6108E0FFF748FC0200BB69E8
:10185000D31A642B01D9032375E2804B1A688023C5
:101860009B021340F0D100E0C0467B681B68022257
:10187000134000D169E0794B5B680C2213400BD018
:10188000764B5B680C221340082B1CD1734B5A68B3
:1018900080235B02134016D1704B1B680222134059
:1018A00005D07B68DB68012B01D001234BE26B4B39
:1018B0001B68F822934319007B681B69DA00674BA9
:1018C0000A431A6041E07B68DB68002B24D0634B3D
:1018D0001A68624B01210A431A60FFF7FFFB0300FD
:1018E000BB6108E0FFF7FAFB0200BB69D31A022BC9
:1018F00001D9032327E2594B1B6802221340F1D080
:10190000564B1B68F822934319007B681B69DA0069
:10191000524B0A431A6018E0504B1A684F4B012192
:101920008A431A60FFF7DAFB0300BB6108E0FFF7A8
:10193000D5FB0200BB69D31A022B01D9032302E2B3
:10194000464B1B6802221340F1D17B681B680822BA
:10195000134036D07B68DB69002B19D03F4B5A6AA5
:101960003E4B01210A435A62FFF7B8FB0300BB61FB
:1019700008E0FFF7B3FB0200BB69D31A022B01D9C1
:101980000323E0E1354B5B6A02221340F1D018E0FB
:10199000324B5A6A314B01218A435A62FFF79EFB50
:1019A0000300BB6108E0FFF799FB0200BB69D31A93
:1019B000022B01D90323C6E1284B5B6A02221340A4
:1019C000F1D17B681B680422134000D1B4E01F20D2
:1019D0003B1800221A70214BDA6980235B05134003
:1019E00010D11E4BDA691D4B802149050A43DA618B
:1019F0001A4BDA6980235B051340FB60FB683B18D8
:101A000001221A70184B1A6880235B0013401AD108
:101A1000154B1A68144B802149000A431A60FFF7DE
:101A20005DFB0300BB6108E0FFF758FB0200BB69E8
:101A3000D31A642B01D9032385E10B4B1A68802349
:101A40005B001340F0D07B689B68012B0ED1034BE9
:101A50001A6A024B01210A431A6235E00010024063
:101A6000FFFFFEFFFFFFFBFF007000407B689B68ED
:101A7000002B0CD1B64B1A6AB54B01218A431A626E
:101A8000B34B1A6AB24B04218A431A621CE07B688A
:101A90009B68052B0CD1AE4B1A6AAD4B04210A434F
:101AA0001A62AB4B1A6AAA4B01210A431A620BE075
:101AB000A74B1A6AA64B01218A431A62A44B1A6AE1
:101AC000A34B04218A431A627B689B68002B14D0C5
:101AD000FFF704FB0300BB6109E0FFF7FFFA020018
:101AE000BB69D31A9B4A934201D903232BE1984B3C
:101AF0001B6A02221340F0D013E0FFF7EFFA030055
:101B0000BB6109E0FFF7EAFA0200BB69D31A914A08
:101B1000934201D9032316E18D4B1B6A0222134025
:101B2000F0D11F23FB181B78012B05D1884BDA69F4
:101B3000874B89490A40DA617B681B681022134091
:101B400063D07B685B69012B2AD1814B5A6B804B38
:101B500004210A435A637E4B5A6B7D4B01210A4391
:101B60005A63FFF7BBFA0300BB6108E0FFF7B6FA60
:101B70000200BB69D31A022B01D90323E3E0744BA3
:101B80005B6B02221340F1D0714B5B6BF8229343E5
:101B900019007B689B69DA006D4B0A435A6334E095
:101BA0007B685B69053311D1694B5A6B684B042123
:101BB0008A435A63664B5B6BF822934319007B6838
:101BC0009B69DA00624B0A435A631EE0604B5A6B12
:101BD0005F4B04210A435A635D4B5A6B5C4B0121F6
:101BE0008A435A63FFF77AFA0300BB6108E0FFF704
:101BF00075FA0200BB69D31A022B01D90323A2E0B4
:101C0000534B5B6B02221340F1D17B681B6A002BA4
:101C100000D197E04E4B5B680C221340082B00D19B
:101C20006BE07B681B6A022B4CD1494B1A68484B0E
:101C30004A490A401A60FFF751FA0300BB6108E005
:101C4000FFF74CFA0200BB69D31A022B01D9032318
:101C500079E03F4B1A6880239B041340F0D13C4B42
:101C6000DB6A0F22934319007B68DA6A384B0A4318
:101C7000DA62374B5B683A4A134019007B689A6A0C
:101C80007B685B6A1A43324B0A435A60304B1A68CE
:101C90002F4B802149040A431A60FFF71FFA030003
:101CA000BB6108E0FFF71AFA0200BB69D31A022BE6
:101CB00001D9032347E0264B1A6880239B04134075
:101CC000F0D03FE0224B1A68214B24490A401A60A9
:101CD000FFF704FA0300BB6108E0FFF7FFF9020019
:101CE000BB69D31A022B01D903232CE0184B1A68C5
:101CF00080239B041340F0D124E07B681B6A012BF6
:101D000001D101231FE0124B5B687B61104BDB6A42
:101D10003B617A6980235B021A407B685B6A9A4266
:101D20000ED13B690F221A407B68DB6A9A4207D1C9
:101D30007A69F0239B031A407B689B6A9A4201D020
:101D4000012300E000231800BD4608B080BDC04656
:101D50000010024088130000FFFFFFEFFFFFFFFEAF
:101D6000FFFFC2FF80B584B000AF786039607B6848
:101D7000002B01D10123B3E05B4B1B680122134010
:101D80003A689A4211D9584B1B68012293431900B3
:101D9000554B3A680A431A60534B1B6801221340A3
:101DA0003A689A4201D001239AE07B681B680222BC
:101DB000134015D07B681B680422134006D04B4BA0
:101DC0005A684A4BE021C9000A435A60474B5B6896
:101DD000F022934319007B689A68444B0A435A6087
:101DE0007B681B680122134040D07B685B68012B35
:101DF00007D13E4B1A6880239B02134014D1012364
:101E00006EE07B685B68022B07D1384B1A68802331
:101E10009B04134008D1012362E0344B1B6802226B
:101E2000134001D101235BE0304B5B6803229343F5
:101E300019007B685A682D4B0A435A60FFF74EF928
:101E40000300FB6009E0FFF749F90200FB68D31AC1
:101E5000274A934201D9032342E0244B5B680C22BA
:101E60001A407B685B689B009A42ECD11E4B1B6852
:101E7000012213403A689A4211D21B4B1B6801227F
:101E800093431900184B3A680A431A60164B1B68B3
:101E9000012213403A689A4201D0012320E07B6876
:101EA0001B680422134009D0104B5B68114A134091
:101EB00019007B68DA680D4B0A435A6000F020F87D
:101EC00001000A4B5B681B090F2213400A4AD35CCE
:101ED0000A00DA40094B1A600320FFF7B9F8002323
:101EE0001800BD4604B080BD002002400010024032
:101EF00088130000FFF8FFFF908E0008000000200C
:101F000090B58FB000AF1423FB182B4A13CA13C32C
:101F100012681A603B1D294A13CA13C312681A605B
:101F20000023FB620023BB6200237B6300237B62F0
:101F300000233B63224B5B68FB62FB6A0C2213406D
:101F4000042B02D0082B03D02DE01E4B3B632DE069
:101F5000FB6A9B0C0F2213401422BA18D35C7B62DD
:101F6000174BDB6A0F2213403A1DD35CBB62FA6A3F
:101F700080235B02134009D0B96A1248FEF7CEF8FD
:101F800003001A007B6A53437B6309E0796A0A0005
:101F90005201521A93019B1ADB005B181B027B63F0
:101FA0007B6B3B6302E0074B3B63C0463B6B180017
:101FB000BD460FB090BDC0465C8E00086C8E000818
:101FC0000010024000127A0080B500AF024B1B687F
:101FD0001800BD4680BDC0460000002080B500AF9F
:101FE000FFF7F2FF0100064B5B681B0A0722134054
:101FF000044AD35CD9400B001800BD4680BDC046E2
:1020000000100240A08E000880B586B000AF786056
:1020100000233B610023FB607B681A6880235B021E
:10202000134000D18EE017203B1800221A70574B46
:10203000DA6980235B05134010D1544BDA69534BA6
:10204000802149050A43DA61504BDA6980235B0538
:102050001340BB60BB683B1801221A704C4B1A68D6
:1020600080235B0013401AD1494B1A68484B8021EA
:1020700049000A431A60FFF731F803003B6108E0AA
:10208000FFF72CF802003B69D31A642B01D9032314
:1020900077E03F4B1A6880235B001340F0D03B4B46
:1020A0001A6AC0239B001340FB60FB68002B34D0EE
:1020B0007B685A68C0239B001340FA689A422CD070
:1020C000324B1B6A334A1340FB60304B1A6A2F4B6A
:1020D000802149020A431A622C4B1A6A2B4B2E4963
:1020E0000A401A62294BFA681A62FB6801221340FF
:1020F00013D0FEF7F3FF03003B6109E0FEF7EEFFAC
:1021000002003B69D31A254A934201D9032338E0E0
:102110001E4B1B6A02221340F0D01C4B1B6A1D4A47
:10212000134019007B685A68184B0A431A62172338
:10213000FB181B78012B05D1144BDA69134B184996
:102140000A40DA617B681B680122134009D00F4BFB
:102150001B6B0322934319007B689A680B4B0A435D
:102160001A637B681B682022134009D0074B1B6B46
:102170001022934319007B68DA68044B0A431A6300
:1021800000231800BD4606B080BDC04600100240C6
:1021900000700040FFFCFFFFFFFFFEFF8813000000
:1021A000FFFFFFEF80B584B000AF78607B68002B45
:1021B00001D10123A8E07B685B6A002B09D17B6811
:1021C0005A6882235B009A4209D07B680022DA6158
:1021D00005E07B6800221A617B6800225A617B68F7
:1021E00000229A627B685D229B5CDBB2002B07D1E8
:1021F0007B685C22002199547B681800FEF7F6FC8E
:102200007B685D22022199547B681B681A687B6891
:102210001B6840218A431A607B68DA68E023DB0090
:102220009A4202D90023FB6002E080235B01FB603D
:102230007B68DA68F0231B019A4208D07B68DA6871
:10224000E023DB009A4202D07B6800229A627B681E
:102250005A6882235B001A407B68996884231B02BA
:102260000B401A437B681B6902210B401A437B68B1
:102270005B6901210B401A437B68996980239B00AD
:102280000B401A437B68DB6938210B401A437B689B
:102290001B6A80210B401A4311007B689A6A8023D5
:1022A0009B011A407B681B680A431A607B689B6924
:1022B0001B0C04221A407B685B6A10210B401A43F6
:1022C0007B685B6B08210B401A437B68D968F0235D
:1022D0001B010B401A431100FA6880235B011A406E
:1022E0007B681B680A435A607B681B68DA697B68F5
:1022F0001B6807490A40DA617B6800221A667B681E
:102300005D220121995400231800BD4604B080BD10
:10231000FFF7FFFF80B588B000AFF860B9603B60A1
:10232000BB1D1A801F23FB1800221A70FB685C2259
:102330009B5C012B01D1022340E1FB685C2201215F
:102340009954FEF7CBFE0300BB611623FB18BA1DA0
:1023500012881A80FB685D229B5CDBB2012B04D0E3
:102360001F23FB1802221A701DE1BB68002B03D04B
:10237000BB1D1B88002B04D11F23FB1801221A70E0
:1023800011E1FB685D2203219954FB6800221A6663
:10239000FB68BA689A63FB68BA1D12889A87FB6863
:1023A000BA1D1288DA87FB6800221A64FB6844228F
:1023B00000219952FB68462200219952FB680022B5
:1023C0001A65FB680022DA64FB689A6880231B02A6
:1023D0009A4210D1FB681B681A68FB681B68402191
:1023E0008A431A60FB681B681A68FB681B688021B7
:1023F000C9010A431A60FB681B681B68402213402E
:10240000402B07D0FB681B681A68FB681B684021DB
:102410000A431A60FB68DA68E023DB009A424ED96F
:10242000FB685B68002B04D01623FB181B88012B6C
:102430003FD1FB689B6B1A88FB681B68DA60FB68FE
:102440009B6B9A1CFB689A63FB68DB8F9BB2013B1A
:102450009AB2FB68DA872CE0FB681B689B68022253
:102460001340022B12D1FB689B6B1A88FB681B6818
:10247000DA60FB689B6B9A1CFB689A63FB68DB8FD6
:102480009BB2013B9AB2FB68DA8712E0FEF726FEA8
:102490000200BB69D31A3A689A4202D83B680133FA
:1024A00002D13B68002B04D11F23FB1803221A70B2
:1024B00079E0FB68DB8F9BB2002BCDD14FE0FB684E
:1024C0005B68002B04D01623FB181B88012B41D11D
:1024D000FB689A6BFB681B680C3312781A70FB68F8
:1024E0009B6B5A1CFB689A63FB68DB8F9BB2013BBA
:1024F0009AB2FB68DA872DE0FB681B689B680222B2
:102500001340022B13D1FB689A6BFB681B680C33DA
:1025100012781A70FB689B6B5A1CFB689A63FB6805
:10252000DB8F9BB2013B9AB2FB68DA8712E0FEF7C1
:10253000D5FD0200BB69D31A3A689A4202D83B68BB
:10254000013302D13B68002B04D11F23FB18032267
:102550001A7028E0FB68DB8F9BB2002BCCD1BA69E4
:102560003968FB68180000F0F5FD031E02D0FB6817
:1025700020221A66FB689B68002B0AD100233B616E
:10258000FB681B68DB683B61FB681B689B683B6101
:102590003B69FB681B6E002B04D01F23FB18012234
:1025A0001A7000E0C046FB685D2201219954FB6867
:1025B0005C22002199541F23FB181B781800BD468C
:1025C00008B080BD90B589B002AFF860B9603B60DB
:1025D000BB1D1A801723FB1800221A70FB685A686B
:1025E00082235B009A4213D1FB689B68002B0FD1BA
:1025F000FB685D2204219954BB1D1C88BA68B96828
:10260000F8683B680093230000F028F903001CE100
:10261000FB685C229B5C012B01D1022315E1FB6866
:102620005C2201219954FEF759FD03003B61FB68D0
:102630005D229B5CDBB2012B04D01723FB18022226
:102640001A70F7E0BB68002B03D0BB1D1B88002B62
:1026500004D11723FB1801221A70EBE0FB685D22FE
:1026600004219954FB6800221A66FB68BA681A6450
:10267000FB68BA1D442112885A52FB68BA1D4621D4
:1026800012885A52FB6800229A63FB6800229A87DC
:10269000FB680022DA87FB680022DA64FB6800220C
:1026A0001A65FB68DA68E023DB009A4208D9FB6808
:1026B0001B685A68FB681B6866490A405A6008E054
:1026C000FB681B685A68FB681B68802149010A4344
:1026D0005A60FB689A6880231B029A420FD1FB68FC
:1026E0001B681A68FB681B6840218A431A60FB68F4
:1026F0001B681A68FB681B6857490A401A60FB6828
:102700001B681B6840221340402B07D0FB681B68E6
:102710001A68FB681B6840210A431A60FB68DA6884
:10272000E023DB009A4200D969E031E0FB681B68D6
:102730009B6801221340012B17D1FB681B680C33E7
:102740001A00FB681B6C1278D2B21A70FB681B6C03
:102750005A1CFB681A64FB6846229B5A9BB2013BD9
:1027600099B2FB684622995212E0FEF7B7FC0200CC
:102770003B69D31A3A689A4202D83B68013302D1C6
:102780003B68002B04D11723FB1803221A7051E079
:10279000FB6846229B5A9BB2002BC7D135E0FB68F1
:1027A0001B689B6801221340012B15D1FB681B6835
:1027B000DA68FB681B6C92B21A80FB681B6C9A1C6F
:1027C000FB681A64FB6846229B5A9BB2013B99B294
:1027D000FB684622995212E0FEF780FC02003B693A
:1027E000D31A3A689A4202D83B68013302D13B6857
:1027F000002B04D11723FB1803221A701AE0FB6880
:1028000046229B5A9BB2002BC9D13A693968FB68B2
:10281000180000F041FC031E02D0FB6820221A665B
:10282000FB681B6E002B04D01723FB1801221A70C3
:1028300000E0C046FB685D2201219954FB685C22E0
:10284000002199541723FB181B781800BD4607B0C8
:1028500090BDC046FFEFFFFFFFBFFFFF80B58AB00E
:1028600000AFF860B9607A601A00BB1C1A800123BF
:102870007B622323FB1800221A70FB685C229B5C9E
:10288000012B01D10223B5E1FB685C22012199549F
:10289000FEF724FC0300FB611B203B18FA685D2156
:1028A000525C1A70FB685B687B611223FB18BA1CD0
:1028B00012881A803B181B78012B11D07A69822369
:1028C0005B009A4207D1FB689B68002B03D13B1841
:1028D0001B78042B04D02323FB1802221A707EE1FC
:1028E000BB68002B06D07B68002B03D0BB1C1B8869
:1028F000002B04D12323FB1801221A706FE1FB681F
:102900005D229B5CDBB2042B03D0FB685D220521BA
:102910009954FB6800221A66FB687A681A64FB689F
:10292000BA1C462112885A52FB68BA1C44211288EC
:102930005A52FB68BA689A63FB68BA1C1288DA8735
:10294000FB68BA1C12889A87FB680022DA64FB686D
:1029500000221A65FB68DA68E023DB009A4208D996
:10296000FB681B685A68FB681B68A4490A405A60E8
:1029700008E0FB681B685A68FB681B6880214901F6
:102980000A435A60FB681B681B6840221340402BB7
:1029900007D0FB681B681A68FB681B6840210A4364
:1029A0001A60FB68DA68E023DB009A4200D87FE017
:1029B000FB685B68002B05D01223FB181B88012BDA
:1029C00000D069E0FB689B6B1A88FB681B68DA60C3
:1029D000FB689B6B9A1CFB689A63FB68DB8F9BB25E
:1029E000013B9AB2FB68DA8756E0FB681B689B687C
:1029F00002221340022B1BD1FB68DB8F9BB2002B02
:102A000016D07B6A012B13D1FB689B6B1A88FB687D
:102A10001B68DA60FB689B6B9A1CFB689A63FB6817
:102A2000DB8F9BB2013B9AB2FB68DA8700237B62A3
:102A3000FB681B689B6801221340012B1CD1FB68BB
:102A400046229B5A9BB2002B16D0FB681B68DA68A3
:102A5000FB681B6C92B21A80FB681B6C9A1CFB68AB
:102A60001A64FB6846229B5A9BB2013B99B2FB68F1
:102A70004622995201237B62FEF730FB0200FB697C
:102A8000D31A3A6B9A4207D83B6B013304D0232305
:102A9000FB1803221A70A2E0FB68DB8F9BB2002BAD
:102AA000A3D1FB6846229B5A9BB2002B9DD185E0A7
:102AB000FB685B68002B05D01223FB181B88012BD9
:102AC00000D070E0FB689A6BFB681B680C331278CF
:102AD0001A70FB689B6B5A1CFB689A63FB68DB8F60
:102AE0009BB2013B9AB2FB68DA875CE0FB681B682B
:102AF0009B6802221340022B1CD1FB68DB8F9BB228
:102B0000002B17D07B6A012B14D1FB689A6BFB68F2
:102B10001B680C3312781A70FB689B6B5A1CFB689D
:102B20009A63FB68DB8F9BB2013B9AB2FB68DA8742
:102B300000237B62FB681B689B6801221340012B0A
:102B40001ED1FB6846229B5A9BB2002B18D0FB6813
:102B50001B680C331A00FB681B6C1278D2B21A7017
:102B6000FB681B6C5A1CFB681A64FB6846229B5A64
:102B70009BB2013B99B2FB684622995201237B62CA
:102B8000FEF7ACFA0200FB69D31A3A6B9A4202D8FC
:102B90003B6B013302D13B6B002B04D12323FB1889
:102BA00003221A701BE0FB68DB8F9BB2002B9DD1C8
:102BB000FB6846229B5A9BB2002B97D1FA69396B6E
:102BC000FB68180000F0C6FA031E07D02323FB1889
:102BD00001221A70FB6820221A6600E0C046FB68DA
:102BE0005D2201219954FB685C2200219954232322
:102BF000FB181B781800BD460AB080BDFFEFFFFF31
:102C000080B588B000AF78607B681B685B68FB614B
:102C10007B681B689B68BB61BB699B091A00012329
:102C200013400FD1BB69012213400BD0FB699B09F4
:102C30001A000123134005D07B68DB6C7A68100012
:102C40009847D5E0BB695B081A00012313400BD0FD
:102C5000FB69DB091A000123134005D07B681B6D5B
:102C60007A6810009847C3E0BB695B091A0001232A
:102C700013400CD1BB699B091A000123134006D1F4
:102C8000BB691B0A1A000123134000D1B0E0FB69A5
:102C90005B091A000123134000D1A9E0BB699B091D
:102CA0001A000123134023D07B685D229B5CDBB2BA
:102CB000032B11D07B681B6E04221A437B681A66B3
:102CC00000237B617B681B68DB687B617B681B681A
:102CD0009B687B617B690BE000233B617B681B6821
:102CE000DB683B617B681B689B683B613B697FE0FD
:102CF000BB695B091A000123134014D07B681B6E6B
:102D000001221A437B681A660023FB607B681B68FC
:102D10009B68FB607B681B681A687B681B684021A6
:102D20008A431A60FB68BB691B0A1A00012313401F
:102D30000CD07B681B6E08221A437B681A6600233E
:102D4000BB607B681B689B68BB60BB687B681B6E55
:102D5000002B4CD07B681B685A687B681B68E0219D
:102D60008A435A607B685D2201219954FB690222E3
:102D7000134003D1FB690122134032D07B681B68EA
:102D80005A687B681B6803218A435A607B689B6D85
:102D9000002B10D07B689B6D174A5A637B689B6D34
:102DA0001800FEF7BBFA031E05D07B681B6E40229D
:102DB0001A437B681A667B685B6D002B16D07B68B4
:102DC0005B6D0D4A5A637B685B6D1800FEF7A6FACF
:102DD000031E0BD07B681B6E40221A437B681A6669
:102DE00004E07B68180000F009F800E0C046C04627
:102DF000BD4608B080BDC0460D2E000880B582B02B
:102E000000AF7860C046BD4602B080BD80B584B0DA
:102E100000AF78607B685B6AFB60FB68462200213C
:102E20009952FB680022DA87FB681800FFF7E6FF7B
:102E3000C046BD4604B080BD80B588B000AFF86024
:102E4000B9603B60FB1D1A70FEF748F90200BB6ACF
:102E50009B1A3A68D318FB61FEF740F90300BB6187
:102E60003A4B1B685B011B0DFA6953437B6158E0C9
:102E70003B68013355D0FEF731F90200BB69D31A24
:102E8000FA699A4202D9FB69002B42D1FB681B68A0
:102E90005A68FB681B68E0218A435A60FB685A68DD
:102EA00082235B009A4213D1FB689A6880231B023D
:102EB0009A4205D0FB689A688023DB009A4207D1CA
:102EC000FB681B681A68FB681B6840218A431A600C
:102ED000FB689A6A80239B019A4210D1FB681B68A9
:102EE0001A68FB681B681A490A401A60FB681B686D
:102EF0001A68FB681B68802189010A431A60FB6815
:102F00005D2201219954FB685C220021995403231E
:102F100017E07B69002B01D10023FB617B69013B3A
:102F20007B61FB681B689B68BA681340BA68D31A58
:102F30005A425341DBB21A00FB1D1B789A4297D1CB
:102F400000231800BD4608B080BDC0460000002028
:102F5000FFDFFFFF80B58AB000AFF860B9607A602C
:102F60003B601723FB1800221A70FEF7B7F8020027
:102F70003B6B9B1A3A68D3187B62FEF7AFF80300ED
:102F80003B62FB681B680C33FB61414B1A68130002
:102F90009B009B18DA00D31A1B0D7A6A5343BB615E
:102FA00068E0BA68C023DB009A420AD17B68002B34
:102FB00007D1FB691B78DAB217217B181A707B18CE
:102FC0001B783B68013355D0FEF788F802003B6A56
:102FD000D31A7A6A9A4202D97B6A002B42D1FB68E3
:102FE0001B685A68FB681B68E0218A435A60FB68CB
:102FF0005A6882235B009A4213D1FB689A68802347
:103000001B029A4205D0FB689A688023DB009A4233
:1030100007D1FB681B681A68FB681B6840218A435C
:103020001A60FB689A6A80239B019A4210D1FB6860
:103030001B681A68FB681B6816490A401A60FB681F
:103040001B681A68FB681B68802189010A431A60A3
:10305000FB685D2201219954FB685C220021995490
:10306000032310E0BB69002B01D100237B62BB6905
:10307000013BBB61FB681B689B68BA6813407A68B8
:103080009A428ED100231800BD460AB080BDC046CA
:1030900000000020FFDFFFFF80B586B002AFF860C0
:1030A000B9607A60FB685A6882235B009A4213D148
:1030B000FB689A6880231B029A4205D0FB689A68D5
:1030C0008023DB009A4207D1FB681B681A68FB6803
:1030D0001B6840218A431A60BA68F8687B680093CD
:1030E000130000228021FFF7A7FE031E07D0FB6814
:1030F0001B6E20221A43FB681A66032326E0FB6836
:103100005A6882235B009A421FD1FB689A68802329
:103110001B029A4205D0FB689A688023DB009A4222
:1031200013D1BA68C023D900F8687B6800931300F4
:103130000022FFF70FFF031E07D0FB681B6E202243
:103140001A43FB681A66032300E000231800BD46FB
:1031500004B080BD80B586B002AFF860B9607A6017
:10316000BA68C0235901F8687B68009313000022F5
:10317000FFF7F0FE031E07D0FB681B6E20221A43E8
:10318000FB681A66032327E0BA68F8687B68009337
:10319000130000228021FFF74FFE031E07D0FB68BB
:1031A0001B6E20221A43FB681A66032314E0BA68D8
:1031B000C023D900F8687B68009313000022FFF752
:1031C000C9FE031E07D0FB681B6E20221A43FB6852
:1031D0001A66032300E000231800BD4604B080BD3A
:1031E00080B582B000AF78607B68002B01D10123ED
:1031F00042E07B683D229B5CDBB2002B07D17B6801
:103200003C22002199547B681800FDF745FD7B683E
:103210003D22022199547B681A687B6804331900A7
:10322000100000F083FA7B684622012199547B68E4
:103230003E22012199547B683F22012199547B68E9
:103240004022012199547B684122012199547B68D5
:103250004222012199547B684322012199547B68C1
:103260004422012199547B684522012199547B68AD
:103270003D220121995400231800BD4602B080BDB3
:1032800080B584B000AF78607B683D229B5CDBB288
:10329000012B01D0012335E07B683D2202219954A6
:1032A0007B681B68DA687B681B6801210A43DA6067
:1032B0007B681B68154A934209D07B681B68144AD7
:1032C000934204D07B681B68124A934211D17B68F9
:1032D0001B689B6807221340FB60FB68062B10D01D
:1032E0007B681B681A687B681B6801210A431A60A7
:1032F00007E07B681B681A687B681B6801210A432A
:103300001A6000231800BD4604B080BD002C0140A7
:10331000000400400040014080B582B000AF7860FA
:103320007B681B681B6902221340022B24D17B6837
:103330001B68DB6802221340022B1DD17B681B68CF
:10334000032252421A617B6801221A777B681B684C
:103350009B690322134004D07B68180000F0CEF96B
:1033600007E07B68180000F0C1F97B68180000F0E6
:10337000CDF97B6800221A777B681B681B690422E1
:103380001340042B25D17B681B68DB6804221340A3
:10339000042B1ED17B681B68052252421A617B6890
:1033A00002221A777B681B689A69C0239B0013402E
:1033B00004D07B68180000F0A1F907E07B681800D2
:1033C00000F094F97B68180000F0A0F97B680022F7
:1033D0001A777B681B681B6908221340082B24D1CD
:1033E0007B681B68DB6808221340082B1DD17B68B3
:1033F0001B68092252421A617B6804221A777B6893
:103400001B68DB690322134004D07B68180000F0BE
:1034100075F907E07B68180000F068F97B68180010
:1034200000F074F97B6800221A777B681B681B69BF
:1034300010221340102B25D17B681B68DB681022FB
:103440001340102B1ED17B681B68112252421A6157
:103450007B6808221A777B681B68DA69C0239B00A7
:10346000134004D07B68180000F048F907E07B683F
:10347000180000F03BF97B68180000F047F97B6802
:1034800000221A777B681B681B6901221340012BFD
:103490000FD17B681B68DB6801221340012B08D128
:1034A0007B681B68022252421A617B681800FDF794
:1034B0002BFB7B681B681B6980221340802B0FD17C
:1034C0007B681B68DB6880221340802B08D17B68F7
:1034D0001B68812252421A617B68180000F096FA3C
:1034E0007B681B681B6940221340402B0FD17B680F
:1034F0001B68DB6840221340402B08D17B681B68A7
:10350000412252421A617B68180000F007F97B687B
:103510001B681B6920221340202B0FD17B681B687E
:10352000DB6820221340202B08D17B681B682122F6
:1035300052421A617B68180000F060FAC046BD462E
:1035400002B080BD80B584B000AF786039600F23D1
:10355000FB1800221A707B683C229B5C012B01D176
:103560000223BCE07B683C22012199547B683D2208
:10357000022199547B681B689B68BB60BB687722FB
:103580009343BB60BB68584A1340BB607B681B68B1
:10359000BA689A603B681B6880229201934240D0CF
:1035A00080229201934200D988E080225201934206
:1035B00000D188E080225201934200D97EE0702B36
:1035C00018D000D97AE0602B4FD000D976E0502B8C
:1035D0003BD000D972E0402B57D000D96EE0302BA1
:1035E00063D06BD8202B60D068D8002B5DD0102B17
:1035F0005BD063E07B6818683B6899683B685A68F1
:103600003B68DB6800F082F97B681B689B68BB60E5
:10361000BB6877221343BB607B681B68BA689A60FB
:1036200052E07B6818683B6899683B685A683B6859
:10363000DB6800F06BF97B681B689A687B681B6825
:103640008021C9010A439A603EE07B6818683B68A4
:1036500059683B68DB681A0000F0DEF87B681B687D
:103660005021180000F038F92EE07B6818683B689C
:1036700059683B68DB681A0000F0FCF87B681B683F
:103680006021180000F028F91EE07B6818683B688C
:1036900059683B68DB681A0000F0BEF87B681B685D
:1036A0004021180000F018F90EE07B681A683B68AA
:1036B0001B681900100000F00FF905E00F23FB183C
:1036C00001221A7000E0C0467B683D220121995416
:1036D0007B683C22002199540F23FB181B781800AB
:1036E000BD4604B080BDC046FF00FFFF80B582B07C
:1036F00000AF7860C046BD4602B080BD80B582B0E4
:1037000000AF7860C046BD4602B080BD80B582B0D3
:1037100000AF7860C046BD4602B080BD80B582B0C3
:1037200000AF7860C046BD4602B080BD80B584B0B1
:1037300000AF786039607B681B68FB607B682F4A4C
:10374000934203D07B682E4A934208D1FB687022D3
:103750009343FB603B685B68FA681343FB607B68DC
:10376000264A934213D07B68254A93420FD07B6848
:10377000244A93420BD07B68234A934207D07B684C
:10378000224A934203D07B68214A934208D1FB68C6
:10379000204A1340FB603B68DB68FA681343FB6018
:1037A000FB68802293431A003B685B691343FB600C
:1037B0007B68FA681A603B689A687B68DA623B68E3
:1037C0001A687B689A627B680C4A93420BD07B68CC
:1037D0000D4A934207D07B680C4A934203D07B6822
:1037E0000B4A934203D13B681A697B681A637B6872
:1037F00001225A61C046BD4604B080BD002C014084
:10380000000400400020004000400140004401400E
:1038100000480140FFFCFFFF80B586B000AFF860B4
:10382000B9607A60FB681B6A7B61FB681B6A0122D6
:1038300093431A00FB681A62FB689B693B613B6912
:10384000F02293433B617B681B013A6913433B6160
:103850007B690A2293437B617A69BB6813437B616E
:10386000FB683A699A61FB687A691A62C046BD468C
:1038700006B080BD80B586B000AFF860B9607A60F0
:10388000FB681B6A102293431A00FB681A62FB68EC
:103890009B697B61FB681B6A3B617B690D4A134036
:1038A0007B617B681B037A6913437B613B69A022C0
:1038B00093433B61BB681B013A6913433B61FB685F
:1038C0007A699A61FB683A691A62C046BD4606B0D9
:1038D00080BDC046FF0FFFFF80B584B000AF7860A9
:1038E00039607B689B68FB60FB6870229343FB60D8
:1038F0003A68FB68134307221343FB607B68FA684E
:103900009A60C046BD4604B080BD000080B586B058
:1039100000AFF860B9607A603B60FB689B687B61D0
:103920007B69094A13407B613B681A027B681A4332
:10393000BB6813437A6913437B61FB687A699A60B9
:10394000C046BD4606B080BDFF00FFFF80B584B015
:1039500000AF786039607B683C229B5C012B01D111
:10396000022341E07B683C22012199547B683D227F
:10397000022199547B681B685B68FB607B681B684D
:103980009B68BB60FB6870229343FB603B681B68CD
:10399000FA681343FB607B681B68FA685A607B68AF
:1039A0001B68134A934209D07B681B68114A9342F3
:1039B00004D07B681B68104A93420CD1BB688022FC
:1039C0009343BB603B685B68BA681343BB607B682A
:1039D0001B68BA689A607B683D22012199547B6814
:1039E0003C220021995400231800BD4604B080BD3C
:1039F000002C0140000400400040014080B582B02E
:103A000000AF7860C046BD4602B080BD80B582B0D0
:103A100000AF7860C046BD4602B080BD80B582B0C0
:103A200000AF78607B68002B01D1012344E07B6804
:103A30009B6F002B07D17B687422002199547B680F
:103A40001800FDF775F97B6824229A677B681B686C
:103A50001A687B681B6801218A431A607B6818001A
:103A600000F0B6FB0300012B01D1012324E07B68A9
:103A70005B6A002B03D07B68180000F0E9FC7B68D0
:103A80001B685A687B681B680D490A405A607B684E
:103A90001B689A687B681B6808218A439A607B6868
:103AA0001B681A687B681B6801210A431A607B68DF
:103AB000180000F081FD03001800BD4602B080BD73
:103AC000FFF7FFFF80B58AB002AFF860B9603B60D6
:103AD000BB1D1A80FB689B6F202B00D096E0BB6853
:103AE000002B03D0BB1D1B88002B01D101238EE0CE
:103AF000FB689A6880235B019A4209D1FB681B69C5
:103B0000002B05D1BB680122134001D001237EE0C8
:103B1000FB6874229B5C012B01D1022377E0FB68D8
:103B2000742201219954FB68802200219950FB687E
:103B300021229A67FDF7D2FA03007B61FB68BA1D68
:103B4000502112885A52FB68BA1D522112885A52CB
:103B5000FB689A6880235B019A4208D1FB681B6965
:103B6000002B04D10023FB61BB68BB6103E0BB6891
:103B7000FB610023BB61FB687422002199542DE096
:103B80007A69F8683B68009313000022802100F0F6
:103B90005BFD031E01D0032339E0FB69002B0BD131
:103BA000BB691A88FB681B68D205D20D92B21A85D0
:103BB000BB690233BB6108E0FB691A78FB681B68CC
:103BC00092B21A85FB690133FB61FB6852229B5A52
:103BD0009BB2013B99B2FB6852229952FB68522278
:103BE0009B5A9BB2002BCBD17A69F8683B68009353
:103BF00013000022402100F027FD031E01D0032303
:103C000005E0FB6820229A67002300E002231800E9
:103C1000BD4608B080BD000090B5ABB000AF786085
:103C20007B681B68DB69A422B9180B607B681B6882
:103C30001B68A02039180B607B681B689B689C215F
:103C400079180B601100BB181B68994A1340982221
:103C5000BC182360BB181B68002B14D17B181B6891
:103C6000202213400FD03B181B68202213400AD09B
:103C70007B685B6E002B00D17EE27B685B6E7A68AE
:103C80001000984778E29823FB181B68002B00D19E
:103C900014E19C23FB181B680122134006D1A023CA
:103CA000FB181B68834A134000D107E1A423FB18CB
:103CB0001B680122134012D0A023FB181A6880232E
:103CC0005B0013400BD07B681B6801221A627B6883
:103CD00080229B5801221A437B6880215A50A423DA
:103CE000FB181B680222134011D09C23FB181B6891
:103CF000012213400BD07B681B6802221A627B688A
:103D000080229B5804221A437B6880215A50A423A6
:103D1000FB181B680422134011D09C23FB181B685E
:103D2000012213400BD07B681B6804221A627B6857
:103D300080229B5802221A437B6880215A50A42378
:103D4000FB181B680822134017D0A023FB181B6820
:103D50002022134005D19C23FB181B68012213402D
:103D60000BD07B681B6808221A627B6880229B58F4
:103D700008221A437B6880215A50A423FB181A6832
:103D800080231B01134013D0A023FB181A68802343
:103D9000DB0413400CD07B681B68802212011A627E
:103DA0007B6880229B5820221A437B6880215A50CE
:103DB0007B6880229B58002B00D1DFE1A423FB18F5
:103DC0001B68202213400ED0A023FB181B68202262
:103DD000134008D07B685B6E002B04D07B685B6E61
:103DE0007A68100098477B6880229B5894217A1843
:103DF00013607B681B689B6840221340402B04D0F3
:103E00007B181B682822134047D07B68180000F0FD
:103E1000DFFC7B681B689B6840221340402B37D136
:103E2000EFF310833B663B6E90203A18136001233A
:103E30007B667B6E83F31088C0467B681B689A683C
:103E40007B681B6840218A439A603B181B68BB66ED
:103E5000BB6E83F31088C0467B681B6F002B12D0AB
:103E60007B681B6F144A5A637B681B6F1800FDF751
:103E700055FA031E1AD07B681B6F5A6B7B681B6F49
:103E80001800904712E07B68180000F08DF90DE0F3
:103E90007B68180000F088F908E07B68180000F0E3
:103EA00083F97B6880220021995067E1C04665E173
:103EB0000F08000020010004954800087B681B6E75
:103EC000012B00D031E1A423FB181B681022134002
:103ED00000D12AE1A023FB181B681022134000D157
:103EE00023E17B681B6810221A627B681B689B6851
:103EF00040221340402B00D09BE07B681B6F1B6867
:103F00005A687E217B181A807B181B88002B00D1F1
:103F100036E17B6858229B5A7A1812889A4200D35D
:103F20002EE17B687A185A2112885A527B681B6FDF
:103F30009B69202B6ED0EFF310833B633B6BBB6719
:103F400001237B637B6B83F31088C0467B681B680F
:103F50001A687B681B688E490A401A60BB6FBB6396
:103F6000BB6B83F31088C046EFF31083FB63FB6BDE
:103F70007B6701233B643B6C83F31088C0467B68FE
:103F80001B689A687B681B6801218A439A607B6F73
:103F90007B647B6C83F31088C046EFF31083BB64B3
:103FA000BB6C3B670123FB64FB6C83F31088C0464A
:103FB0007B681B689A687B681B6840218A439A600B
:103FC0003B6F3B653B6D83F31088C0467B682022C6
:103FD000DA677B6800221A66EFF310837B657B6DDE
:103FE000FB660123BB65BB6D83F31088C0467B680D
:103FF0001B681A687B681B6810218A431A60FB6E75
:10400000FB65FB6D83F31088C0467B681B6F18004F
:10401000FDF74CF97B6858229A5A7B685A215B5A03
:104020009BB2D31A9AB27B681100180000F0C4F852
:10403000A6E07B685822995A7B685A229B5A9AB20A
:104040008E203B188A1A1A807B685A229B5A9BB290
:10405000002B00D196E03B181B88002B00D191E08B
:10406000EFF31083FB60FB6888243A191360012387
:104070003B613B6983F31088C0467B681B681A6804
:104080007B681B6843490A401A603B191B687B61C7
:104090007B6983F31088C046EFF31083BB61BB6973
:1040A00084243A1913600123FB61FB6983F31088B0
:1040B000C0467B681B689A687B681B6801218A433D
:1040C0009A603B191B683B623B6A83F31088C046C9
:1040D0007B682022DA677B6800221A667B680022F0
:1040E0005A66EFF310837B627B6A80243A1913606F
:1040F0000123BB62BB6A83F31088C0467B681B68E0
:104100001A687B681B6810218A431A603B191B6878
:10411000FB62FB6A83F31088C0463B181A887B68F1
:104120001100180000F048F82CE0A423FB181B68CD
:10413000802213400FD0A023FB181B68802213405D
:1041400009D07B689B6E002B1ED07B689B6E7A68C3
:104150001000984718E0A423FB181B684022134066
:1041600013D0A023FB181B68402213400DD07B689E
:10417000180000F0A6FB08E0C04606E0C04604E0D8
:10418000C04602E0C04600E0C046BD462BB090BD30
:10419000FFFEFFFFDFFEFFFF80B582B000AF78605B
:1041A000C046BD4602B080BD80B582B000AF786029
:1041B000C046BD4602B080BD80B582B000AF786019
:1041C0000A00BB1C1A80C046BD4602B080BD00007C
:1041D00080B588B000AF78601E23FB1800221A70EB
:1041E0007B689A687B681B691A437B685B691A4322
:1041F0007B68DB6913437B617B681B681B688D4AA6
:10420000134019007B681B687A690A431A607B684F
:104210001B685B68884A134019007B68DA687B6812
:104220001B680A435A607B689B697B617B681B6AD9
:104230007A6913437B617B681B689B687F4A1340E4
:1042400019007B681B687A690A439A607B681B685F
:104250007B4A934227D17B4B1B6B03221340032BDA
:104260000DD01BD8022B14D018D8002B02D0012B54
:104270000AD013E01F23FB1800221A7021E01F232D
:10428000FB1802221A701CE01F23FB1804221A706C
:1042900017E01F23FB1808221A7012E01F23FB18D7
:1042A00010221A700DE07B681B68674A934204D1A4
:1042B0001F23FB1800221A7003E01F23FB18102293
:1042C0001A707B68DA6980231B029A425DD11F2332
:1042D000FB181B78082B15D018DC042B0DD015DC2F
:1042E000002B02D0022B05D010E0FDF777FE030073
:1042F000BB6112E0554BBB610FE0FDF701FE03000F
:10430000BB610AE080231B02BB6106E00023BB61A6
:104310001E23FB1801221A70C046BB69002B00D176
:104320007BE0BB695A007B685B685B08D2187B68DE
:104330005B6819001000FBF7F1FE03009BB23B61C4
:104340003B690F2B1CD93A6980235B029A4217D232
:104350003B699AB20E203B180F218A431A803B69B1
:104360005B089BB20722134099B23B183A18128897
:104370000A431A807B681B683A181288DA604CE09E
:104380001E23FB1801221A7047E01F23FB181B781D
:10439000082B15D018DC042B0DD015DC002B02D017
:1043A000022B05D010E0FDF719FE0300BB6112E0FF
:1043B000264BBB610FE0FDF7A3FD0300BB610AE0E4
:1043C00080231B02BB6106E00023BB611E23FB1898
:1043D00001221A70C046BB69002B1ED07B685B6847
:1043E0005A08BB69D2187B685B6819001000FBF79C
:1043F00095FE03009BB23B613B690F2B09D93A69DB
:1044000080235B029A4204D27B681B683A69DA60B7
:1044100003E01E23FB1801221A707B6800225A66F3
:104420007B6800229A661E23FB181B781800BD4685
:1044300008B080BDF369FFFFFFCFFFFFFFF4FFFF70
:1044400000380140001002400044004000127A0091
:1044500080B582B000AF78607B685B6A0122134050
:104460000BD07B681B685B684A4A134019007B6865
:104470009A6A7B681B680A435A607B685B6A0222FF
:1044800013400BD07B681B685B68434A13401900DC
:104490007B68DA6A7B681B680A435A607B685B6AE0
:1044A000042213400BD07B681B685B683B4A1340B7
:1044B00019007B681A6B7B681B680A435A607B682B
:1044C0005B6A082213400BD07B681B685B68344A28
:1044D000134019007B685A6B7B681B680A435A605B
:1044E0007B685B6A102213400BD07B681B689B685B
:1044F0002C4A134019007B689A6B7B681B680A433F
:104500009A607B685B6A202213400BD07B681B6833
:104510009B68254A134019007B68DA6B7B681B682F
:104520000A439A607B685B6A402213401DD07B6817
:104530001B685B681D4A134019007B681A6C7B6816
:104540001B680A435A607B681A6C80235B039A429B
:104550000BD17B681B685B68154A134019007B68A8
:104560005A6C7B681B680A435A607B685B6A8022CE
:1045700013400BD07B681B685B680E4A1340190020
:104580007B689A6C7B681B680A435A60C046BD46CC
:1045900002B080BDFFFFFDFFFFFFFEFFFFFFFBFF3F
:1045A000FF7FFFFFFFEFFFFFFFDFFFFFFFFFEFFFDB
:1045B000FFFF9FFFFFFFF7FF80B586B002AF786077
:1045C0007B68802200219950FCF788FD0300FB6086
:1045D0007B681B681B6808221340082B0CD1FB6802
:1045E000802291037868174A0092002200F02CF88C
:1045F000031E01D0032321E07B681B681B68042293
:104600001340042B0CD1FB688022D10378680D4A3B
:104610000092002200F018F8031E01D003230DE0E1
:104620007B6820229A677B682022DA677B680022F9
:104630001A667B6874220021995400231800BD4635
:1046400004B080BDFFFFFF0180B594B000AFF860FB
:10465000B9603B60FB1D1A70A3E0BB6D013300D154
:104660009FE0FCF73BFD02003B68D31ABA6D9A420B
:1046700002D3BB6D002B3DD1EFF31083BB62BB6A4D
:104680007B640123FB62FB6A83F31088C046FB68EE
:104690001B681A68FB681B684C490A401A607B6CEF
:1046A0003B633B6B83F31088C046EFF310837B635F
:1046B0007B6B3B640123BB63BB6B83F31088C046F9
:1046C000FB681B689A68FB681B6801218A439A6033
:1046D0003B6CFB63FB6B83F31088C046FB682022B6
:1046E0009A67FB682022DA67FB68742200219954DC
:1046F000032367E0FB681B681B680422134050D04B
:10470000FB681B68DA6980231B011A4080231B01A8
:104710009A4246D1FB681B68802212011A62EFF3AD
:1047200010833B613B69FB6401237B617B6983F3FD
:104730001088C046FB681B681A68FB681B68234921
:104740000A401A60FB6CBB61BB6983F31088C046EA
:10475000EFF31083FB61FB69BB6401233B623B6A9F
:1047600083F31088C046FB681B689A68FB681B6867
:1047700001218A439A60BB6C7B627B6A83F3108859
:10478000C046FB6820229A67FB682022DA67FB6834
:10479000802220219950FB68742200219954032320
:1047A00010E0FB681B68DB69BA681340BA68D31A6B
:1047B0005A425341DBB21A00FB1D1B789A4200D1CA
:1047C0004BE700231800BD4614B080BD5FFEFFFF1D
:1047D00080B58EB000AF7860EFF310837B617B69AA
:1047E0007B630123BB61BB6983F31088C0467B6890
:1047F0001B681A687B681B6825490A401A607B6B36
:10480000FB61FB6983F31088C046EFF310833B62C2
:104810003B6A3B6301237B627B6A83F31088C0465B
:104820007B681B689A687B681B6801218A439A60D1
:104830003B6BBB62BB6A83F31088C0467B681B6E10
:10484000012B18D1EFF31083BB60BB68FB6201231F
:10485000FB60FB6883F31088C0467B681B681A689E
:104860007B681B6810218A431A60FB6A3B613B69C5
:1048700083F31088C0467B682022DA677B680022B9
:104880001A667B6800225A66C046BD460EB080BDDF
:10489000DFFEFFFF80B584B000AF78607B685B6AA5
:1048A000FB60FB685A2200219952FB6852220021CA
:1048B0009952FB681800FFF777FCC046BD4604B06C
:1048C00080BD80B586B000AF7860EFF31083BB6029
:1048D000BB687B610123FB60FB6883F31088C046E3
:1048E0007B681B681A687B681B6840218A431A60D2
:1048F0007B693B613B6983F31088C0467B6820225B
:104900009A677B6800229A667B681800FFF744FC70
:10491000C046BD4606B080BDB0B584B000AF78607B
:10492000254BDB689847244B5B699847224B5B6AB1
:10493000002B03D0204B9B6A002B14D11E4B1B6A0B
:104940007A68120CD2B2100098471B4B1B6A7A6827
:10495000120AD2B210009847174B1B6A7A68D2B27B
:104960001000984714E07B681B0CDAB20C217B180E
:104970001A707B681B0ADAB27B185A707B68DAB24D
:104980007B189A700C4B9B6A7A1803211000984789
:10499000094BDB690F257C19984703002370064BF0
:1049A0009B699847044B1B6998477B191B78180033
:1049B000BD4604B0B0BDC0460C00002080B584B038
:1049C00000AF78600A00FB1C1A70264BDB68984722
:1049D000244B5B6998477B68042213437B60214B1F
:1049E0009B6A002B1AD11F4B1B6A7A68120CD2B239
:1049F000100098471B4B1B6A7A68120AD2B210004B
:104A00009847184B1B6A7A68D2B210009847154B2A
:104A10001B6AFA1C12781000984718E07B681B0C80
:104A2000DAB20C217B181A707B681B0ADAB27B1889
:104A30005A707B68DAB27B189A707B18FA1C12786D
:104A4000DA70084B9B6A7A18042110009847054BCE
:104A50009B699847034B1B699847C046BD4604B005
:104A600080BDC0460C000020B0B586B000AFF86035
:104A7000B960BB1D1A80324BDB689847304B5B69CD
:104A800098472F4B5B6A002B03D02D4B9B6A002B62
:104A90002FD12B4B1B6AFA68120CD2B21000984728
:104AA000274B1B6AFA68120AD2B210009847244BAF
:104AB0001B6AFA68D2B2100098471623FB1800222E
:104AC0001A800EE01E4BDB6916257A191288B96828
:104AD0008C189847030023707B191A887B190132C0
:104AE0001A801623FA18BB1D12881B889A42E9D334
:104AF0001BE0FB681B0CDAB210217B181A70FB68F4
:104B00001B0ADAB27B185A70FB68DAB27B189A700B
:104B10000B4B9B6A7A18032110009847084B5B6A7D
:104B2000BA1D1188BA6810009847054B9B699847D1
:104B3000034B1B699847C046BD4606B0B0BDC04692
:104B40000C00002090B587B000AFF860B960BB1DC5
:104B50001A80324BDB689847304B5B699847FB689B
:104B600004221343FB602D4B9B6A002B2FD12B4B50
:104B70001B6AFA68120CD2B210009847274B1B6AC6
:104B8000FA68120AD2B210009847244B1B6AFA68DE
:104B9000D2B2100098471623FB1800221A800EE0AC
:104BA0001E4B1B6A16243A191288B9688A181278A3
:104BB000100098473B191A883B1901321A801623B6
:104BC000FA18BB1D12881B889A42E9D31BE0FB68C8
:104BD0001B0CDAB210217B181A70FB681B0ADAB2C0
:104BE0007B185A70FB68DAB27B189A700B4B9B6A81
:104BF0007A18032110009847084B9B6ABA1D118848
:104C0000BA6810009847054B9B699847034B1B698E
:104C10009847C046BD4607B090BDC0460C00002076
:104C2000B0B584B000AF0200FB1D1A700E23FB1854
:104C300000221A800C23FB1800221A80FB1D1B780F
:104C40009B000133DB0080229201944663441800EC
:104C5000FFF762FE03001A000C257B191A807B19EE
:104C60001B881B029CB2FB1D1B789B000133DB00E1
:104C700084229201944663441800FFF74DFE03001E
:104C80009AB27B19A2181A807B191B88002B25D099
:104C9000FB1D1B789B000133DB00802292019446B0
:104CA00063441800FFF738FE03001A000E257B1935
:104CB0001A807B191B881B029CB2FB1D1B789B0072
:104CC0000133DB0084229201944663441800FFF70D
:104CD00023FE03009AB27B19A2181A800E217A18BB
:104CE0000C23FB1812881B889A42A7D17B181B88BB
:104CF0001800BD4604B0B0BDB0B584B000AF02002E
:104D0000FB1D1A700E23FB1800221A800C23FB18BF
:104D100000221A80FB1D1B789B000133DB009822C8
:104D20009201944663441800FFF7F6FD03001A0051
:104D30000C257B191A807B191B881B029CB2FB1D5A
:104D40001B789B000133DB009C2292019446634454
:104D50001800FFF7E1FD03009AB27B19A2181A8030
:104D60007B191B88002B25D0FB1D1B789B00013372
:104D7000DB0098229201944663441800FFF7CCFDB3
:104D800003001A000E257B191A807B191B881B0251
:104D90009CB2FB1D1B789B000133DB009C2292011F
:104DA000944663441800FFF7B7FD03009AB27B19DD
:104DB000A2181A800E217A180C23FB1812881B885F
:104DC0009A42A7D17B181B881800BD4604B0B0BD1D
:104DD000B0B584B000AF39601100FB1D021C1A7021
:104DE0003B1D0A1C1A800E257B1900221A80002305
:104DF000BB603B1D1B88002B5ED0FB1D1B789B00FE
:104E00000133DB0090229201944663441800FFF7BF
:104E100083FD03009BB21B029CB2FB1D1B789B0011
:104E20000133DB0094229201944663441800FFF79B
:104E300073FD03009AB27B19A2181A802C007B190B
:104E40001B881B02FA1D127892000232D2009B18B6
:104E5000BB603B1D1A883968BB681800FFF772FEFB
:104E60003B1939193A1D098812888A181A80FB1DC6
:104E70001B789B000133DB0090229201944663442F
:104E80001A003B191B881B0A9BB2DBB219001000E9
:104E9000FFF794FDFB1D1B789B000133DB00942280
:104EA0009201944663441A003B191B88DBB2190037
:104EB0001000FFF783FD00E0C046BD4604B0B0BD62
:104EC000B0B584B000AF39601100FB1D021C1A7030
:104ED0003B1D0A1C1A800E257B1900221A80002314
:104EE000BB603B1D1B88002B5ED0FB1D1B789B000D
:104EF0000133DB00A0229201944663441800FFF7BF
:104F00000BFD03009BB21B029CB2FB1D1B789B0098
:104F10000133DB00A4229201944663441800FFF79A
:104F2000FBFC03009AB27B19A2181A802C007B1993
:104F30001B881B02FA1D127892000332D2009B18C4
:104F4000BB603B1D1A883968BB681800FFF78CFDF1
:104F50003B1939193A1D098812888A181A80FB1DD5
:104F60001B789B000133DB00A0229201944663442E
:104F70001A003B191B881B0A9BB2DBB219001000F8
:104F8000FFF71CFDFB1D1B789B000133DB00A422F7
:104F90009201944663441A003B191B88DBB2190046
:104FA0001000FFF70BFD00E0C046BD4604B0B0BDE9
:104FB000B0B584B000AF0200FB1D1A703B1D0A1C87
:104FC0001A800E257B1900221A80FB1D1B789B007E
:104FD0000133DB00A0229201944663441800FFF7DE
:104FE0009BFC03009BB21B029CB2FB1D1B789B0029
:104FF0000133DB00A4229201944663441800FFF7BA
:105000008BFC03009AB27B19A2181A802C003B1962
:1050100039193A1D098812888A181A80FB1D1B78D5
:105020009B000133DB00A0229201944663441A00E6
:105030003B191B881B0A9BB2DBB219001000FFF75B
:10504000BDFCFB1D1B789B000133DB00A4229201F9
:10505000944663441A003B191B88DBB21900100008
:10506000FFF7ACFCC046BD4604B0B0BDB0B584B0DF
:1050700000AF05000C0010001900FB1D2A1C1A705F
:10508000BB1D221C1A703B1D021C1A80FB1C0A1C33
:105090001A70FB1D1B78082B02D901235B420DE11E
:1050A000BB1D1B78012B05D0002B11DD023B022B11
:1050B0000ED811E00C23F918F0231B01042218006C
:1050C000FFF7D2FCFB68002B05D103235B42F5E020
:1050D00005235B42F2E0C046FB1C1B780422134010
:1050E00002D006235B42E9E0FB1C1B78002B28D092
:1050F000BB1D1B78012B02D0022B08D026E0FB1C25
:105100001B78212213401ED106235B42D6E0FB1CF4
:105110001B782022134007D0FB1C1B785BB2002BAE
:1051200002DB06235B42C9E0FB1C1B781022134004
:105130000BD0FB1C1B785BB2002B06DB06235B420B
:10514000BCE0C04602E0C04600E0C046FB1D1B7844
:10515000180000F0C5F8FB1D1B789B000133DB0035
:105160001800FB1C1B785BB20F2293435AB2BB1D85
:105170001B785BB213435BB2DBB21900FFF71EFC76
:105180003B1D1B88002B0FD14E4B1B885A1C91B224
:105190004C4A11803A1D13804A4B1B884A4A93425D
:1051A00002D1484B494A1A80FB1D1B789B000133F2
:1051B000DB008022D200944663441A003B1D1B880A
:1051C0001B0A9BB2DBB219001000FFF7F7FBFB1DB7
:1051D0001B789B000133DB00A022D200944663447D
:1051E0001A003B1D1B88DBB219001000FFF7E6FB1D
:1051F000FB1D1B789B000133DB000133FF330121D2
:105200001800FFF7DBFBC046FB1D1B789B0001333A
:10521000DB000133FF331800FFF77EFB031EF3D1E1
:10522000FB1D1B7801229A4013001BB2DB431BB20B
:10523000274A128812B213401BB29AB2244B1A802A
:10524000FB1C1B7801221A40FB1D1B789A4013009F
:105250001AB21F4B1B881BB213431BB29AB21C4BD2
:105260001A80FB1D1B7801229A4013001BB2DB43FE
:105270001BB2184A128812B213401BB29AB2154BD5
:105280001A80FB1D1A78144B52000021D152FB1DCD
:105290001B78124A0021D154C046FB1D1B789B008D
:1052A0000133DB00C0229200944663441800FFF7EC
:1052B00033FB031EF1D0FB1D1B785BB21800BD460B
:1052C00004B0B0BD0A000020F0FF000000C0FFFFE6
:1052D000600600206206002064060020740600209C
:1052E00080B582B000AF0200FB1D1A70FB1D1B7859
:1052F000082B02D901235B425FE0FB1D1B789B005A
:105300000133DB000133FF3310211800FFF756FB98
:10531000C046FB1D1B789B000133DB000133FF33CC
:105320001800FFF7F9FA031EF3D1FB1D1B789B0051
:105330000133DB0080229200944663441F21180051
:10534000FFF73CFBFB1D1B7801229A4013001BB2A8
:10535000DB431BB21B4A128812B213401BB29AB233
:10536000184B1A80FB1D1B7801229A4013001BB2B8
:10537000DB431BB2144A128812B213401BB29AB21A
:10538000114B1A80FB1D1A78104B52000021D1528C
:10539000FB1D1B780E4A0021D154C046FB1D1B7813
:1053A0009B000133DB00C022920094466344180046
:1053B000FFF7B2FA031EF1D101231800BD4602B077
:1053C00080BDC04660060020620600206406002002
:1053D00074060020B0B586B000AFB96011007B60E4
:1053E0000F243B19021C1A700C23FB180A1C1A808C
:1053F0001723FB1800221A701423FB1800221A80AE
:105400003B191B78082B02D901235B426FE10F2364
:10541000FB181B789B000133DB001800FFF77CFAB8
:1054200003001A000F231340023B022B02D905236D
:105430005B425CE1C0460C23FB181B88002B02D1A9
:105440000E235B4253E17B681B783B613B691B0287
:105450007A68013212789B183B613B691B027A68BB
:10546000023212789B183B613B691B027A68033257
:1054700012789B183B613B69002B11D10F23FB185D
:105480001B789B000133DB001800FFF745FA03008F
:105490001A0004231340042B02D00C235B4226E1A4
:1054A0002823FB181B88002B11D10F23FB181B7816
:1054B0009B000133DB001800FFF72EFA03001A00EF
:1054C00004231340042B02D00B235B420FE10F2374
:1054D000FB181B789B000133DB00C022920094462E
:1054E000634417257C191800FFF716FA0300237090
:1054F0007B191B78422B0AD07B191B78222B06D0F4
:105500007B191B78322B02D007235B42EFE00F247C
:105510003B191B789B000133DB00C022120194462B
:10552000634418007B6804221900FFF70BFB3B194A
:105530001B789B000133DB008022520194466344B8
:105540001A0028257B191B881B0A9BB2DBB21900A5
:105550001000FFF733FA3B191B789B000133DB0087
:1055600088225201944663441A007B191B88DBB2DF
:1055700019001000FFF722FA3B191B789B0001333A
:10558000DB00F8225201944663441800FFF7C4F987
:1055900003009AB214217B1892021A800C203A1848
:1055A0007B1812881B889A4203D93B187A181288F4
:1055B0001A801423FC180F257B191B781800FFF79D
:1055C0002FFB030023807B191B789B000133DB003A
:1055D000C0229200944663441800FFF79DF9031E11
:1055E00002D104235B4282E0434B1B881A000F2345
:1055F000FB181B781A4113000122134009D00C2319
:10560000FA181423FB1812881B889A4201D9002328
:105610006DE00C23FA181423FB1812881B889A4299
:1056200000D9C6E7C0460C23FB181A88B9680F24B6
:105630003B191B781800FFF7CBFB3B191B789B002D
:105640000133DB000133FF3320211800FFF7B6F9E7
:10565000C0460F23FB181B789B000133DB0001338E
:10566000FF331800FFF758F9031EF2D10F243B193E
:105670001B789B000133DB00802292009446634438
:105680001800FFF749F90300190017203B181F22E3
:105690000A401A703B181B781022134011D03B1996
:1056A0001B789B000133DB00802292009446634408
:1056B00010211800FFF782F9C0460C23FB181B8845
:1056C00015E01723FB181B7808221340CED00F23B8
:1056D000FB181B789B000133DB008022920094466C
:1056E000634408211800FFF769F90D235B42180095
:1056F000BD4606B0B0BDC04660060020B0B588B05B
:1057000000AFB96011007B600F243B19021C1A70B6
:105710000C23FB180A1C1A801E23FB1800221A8077
:105720003B191B78082B02D901235B4264E20F234B
:10573000FB181B789B000133DB001D257C1918002A
:10574000FFF7EAF8030023707B191B780F22134040
:10575000023B022B02D905235B424DE2C0460C23DB
:10576000FB181B88002B02D10E235B4244E20F235F
:10577000FB181A78AF4B5200D35A002B33D11E239B
:10578000FC180F257B191B781800FFF7B5FA0300EA
:1057900023807B191B789B000133DB00C022920021
:1057A000944663441800FFF7B7F8031E02D10423A0
:1057B0005B4221E2A04B1B881A000F23FB181B78C9
:1057C0001A4113000122134006D01E23FB181B8828
:1057D000002B01D100230FE21E23FB181B88002B96
:1057E00000D1CCE7C0461D23FB181B7807221340CD
:1057F000042B00D19DE000DDA7E1022B03D0032B99
:1058000000D121E1A1E10F203B181A78894B520009
:10581000D35A002B63D11423F91804003B181B78CA
:1058200008221800FFF74CFB3B191B789B00013343
:10583000DB000133FF3340211800FFF7BFF8C046FB
:105840000F243B191B789B000133DB000133FF332E
:105850001800FFF761F8031EF2D114203B181A78E4
:105860007B681A707B6801333A1852781A707B682B
:1058700002333A1892781A707B6803333A18D27858
:105880001A703B181B799AB23B6B1A803B6B1B88D2
:105890001B029AB23B185B799BB2D3189AB23B6B4E
:1058A0001A803B1899793B191A7889B2614B5200DA
:1058B000D1523B191A785F4B5200D35A1B0299B24E
:1058C0003B18DB799BB23A191278CB1899B2594B35
:1058D0005200D1523B191B78584A8021D1540F23D2
:1058E000FB181A78534B5200D35A0C217A1812889D
:1058F0009A4205D21E23FB187A1812881A8008E0F3
:105900000F23FB1819781E23FB184A4A49008A5AAC
:105910001A800C23FB181E217A1812881A807B1813
:105920001A88B9680F23FB181B781800FFF7C8FA0C
:105930001DE10F203B181A783E4B5200D35A002B22
:1059400052D11423F91804003B181B7802221800C6
:10595000FFF7B6FA3B191B789B000133DB000133DC
:10596000FF3340211800FFF729F8C0460F243B19E8
:105970001B789B000133DB000133FF331800FEF777
:10598000CBFF031EF2D114203B1819783B191A786B
:1059900089B2284B5200D1523B191A78254B52003C
:1059A000D35A1B029AB23B185B789BB2D3189BB2B6
:1059B0003A191278023B99B21E4B5200D1523B1950
:1059C0001A781C4B5200D35A1D4A934206D93B19F0
:1059D0001B781800FFF784FC1A4B0DE10F23FB180E
:1059E0001B78164A8021D1540F23FB181A78114BCB
:1059F0005200D35A0C217A1812889A4205D21E23DB
:105A0000FB187A1812881A8008E00F23FB181978FF
:105A10001E23FB18074A49008A5A1A801E23FB18C6
:105A20001A88B9680F23FB181B781800FFF748FA8B
:105A30009DE0C04664060020600600207406002039
:105A4000EA05000017FCFFFF0F203B181A786C4B8B
:105A50005200D35A002B53D11423F91804003B18D9
:105A60001B7806221800FFF72BFA3B191B789B00C6
:105A70000133DB000133FF3340211800FEF79EFFA6
:105A8000C0460F243B191B789B000133DB00013318
:105A9000FF331800FEF740FF031EF2D114203B181D
:105AA0001A787B681A707B6801333A1852781A703A
:105AB0007B6802333A1892781A707B6803333A187D
:105AC000D2781A703B1819793B191A7889B24C4B65
:105AD0005200D1523B191A78494B5200D35A1B023B
